:020000040800F2
:10000000C008002089010008731A00083917000889
:10001000711A00088F020008E121000800000000AA
:10002000000000000000000000000000B11C0008FB
:100030009102000800000000091C0008B31C000821
:10004000A3010008A3010008A3010008A301000800
:10005000A3010008A3010008A3010008A3010008F0
:10006000A3010008A3010008A3010008A3010008E0
:10007000A3010008A3010008A3010008A3010008D0
:10008000A3010008A3010008A3010008A3010008C0
:10009000A3010008A3010008A3010008A3010008B0
:1000A000A3010008A3010008A3010008A3010008A0
:1000B000A3010008A3010008191D0008A3010008FE
:1000C000A3010008A3010008A3010008A301000880
:1000D000A3010008A3010008D5210008A30100081E
:1000E000A3010008A3010008A301000800F002F822
:1000F00000F03AF80AA090E8000C82448344AAF188
:100100000107DA4501D100F02FF8AFF2090EBAE885
:100110000F0013F0010F18BFFB1A43F0010318473B
:100120005828000078280000103A24BF78C878C109
:10013000FAD8520724BF30C830C144BF04680C60ED
:10014000704700000023002400250026103A28BF35
:1001500078C1FBD8520728BF30C148BF0B60704739
:100160001FB51FBD10B510BD00F058F81146FFF7C0
:10017000F7FF02F046F800F076F803B4FFF7F2FF5D
:1001800003BC00F07DF8000009488047094800479B
:10019000FEE7FEE7FEE7FEE7FEE7FEE7FEE7FEE737
:1001A000FEE7FEE704480549054A064B7047000094
:1001B000151D0008ED000008C0020020C008002046
:1001C000C0040020C00400204FF0000200B5134618
:1001D00094469646203922BFA0E80C50A0E80C5067
:1001E000B1F12001BFF4F7AF090728BFA0E80C5018
:1001F00048BF0CC05DF804EB890028BF40F8042B11
:1002000008BF704748BF20F8022B11F0804F18BF7D
:1002100000F8012B7047704770477047754600F033
:100220002BF8AE4605006946534620F00700854688
:1002300018B020B5FFF7B6FFBDE820404FF000062C
:100240004FF000074FF000084FF0000B21F00701BE
:10025000AC46ACE8C009ACE8C009ACE8C009ACE801
:10026000C0098D46704710B50446AFF300802046A4
:10027000BDE81040FFF781BF0048704760020020D2
:1002800001491820ABBEFEE7260002007047FEE7DA
:10029000704772B6FEE710B590F8211000220229CF
:1002A00005D00421816380F82020012010BD016861
:1002B0000B6823F00E030B6001680B6823F0010349
:1002C0000B6090F84030C46B012101FA03F36360C6
:1002D00080F8211080F82020104610BD10B590F84D
:1002E00021100024022903D00421816301243DE070
:1002F00001680A6822F00E020A6001680A6822F0AA
:1003000001020A601A4A0168914201D1012121E0EB
:10031000174A1432914201D110211BE0144A2832AD
:10032000914201D1891515E0114A3C32914201D127
:1003300089140FE00E4A5032914202D14FF48031BD
:1003400008E00B4A6432914202D14FF4801101E07F
:100350004FF08071064A083A5160012180F821105F
:10036000002180F82010416B01B18847204610BD64
:10037000080002402DE9F84FDFF8B8910024A9F1F8
:10038000040B23460F2709F1040AABF1040EC9E060
:100390000125A5402A40AA427DD1674ED1F804C06C
:1003A000ACEB0608B44532D014DCBCF1030F3AD0F4
:1003B00009DCBCF1000F2AD0BCF1010F1CD0BCF14C
:1003C000020F31D11DE0BCF1110F17D0BCF1120F9B
:1003D0002AD119E0B8F5881F19D006DCB8F5803F9E
:1003E00015D0B8F5801F1FD111E0B8F5001F0ED051
:1003F000B8F5041F18D10AE0CB6815E0CB681B1DC7
:1004000012E0CB6808330FE0CB680C330CE08B684C
:100410002BB1012B4FF0080303D0456104E0042306
:1004200002E0056100E00023FF2A01D8064601E052
:1004300000F104064FEA840501D9A5F12005D6F89C
:10044000008007FA05FC28EA0C0803FA05F548EADB
:100450000508C6F800804D68ED0062D5374DAE69DD
:1004600046F00106AE61AD6924F0030605F0010512
:100470000095334D06EB050CDCF80850A607360F47
:1004800007FA06F825EA0805DFF8B880404503D1E9
:100490004FF0000817E044E0DFF8AC80404502D19F
:1004A0004FF001080FE0DFF8A480404502D14FF083
:1004B000020808E0DFF89880404502D14FF00308B9
:1004C00001E04FF0040808FA06F848EA0508CCF8FD
:1004D00008804D68D9F80060ED024D4601D51643FD
:1004E00000E096432E604D68DAF80060AD02554694
:1004F00001D5164300E096432E604D68DBF800609E
:10050000AD035D4601D5164300E096432E604D686D
:10051000DEF80060ED03754601D5164300E0964312
:100520002E60641C0D682A46E5407FF431AFBDE8BB
:10053000F88F000008040140000011100010024074
:100540000000014000080140000C01400010014083
:10055000001401400AB1016170470904FBE7000083
:100560000148806870470000000000200248816850
:10057000027811448160704700000020074810B5E0
:10058000016841F010010160032000F075F80F20B0
:1005900000F006F800F024F8002010BD0020024012
:1005A00070B50D4D04464FF47A712878B1FBF0F028
:1005B0000A490968B1FBF0F000F0DCFA48B9102CE8
:1005C00007D200222146501E00F036F800206C6051
:1005D00070BD012070BD0000000000200C00002054
:1005E0000C4808B5816941F001018161816901F020
:1005F00001010091C16941F08051C161C06900F001
:10060000805000900448416821F0E06141F00071A1
:10061000416008BD0010024000000140002809DBD5
:1006200000F01F02012191404009800000F1E0200C
:10063000C0F8001170470000F0B40E4B1B680C4668
:10064000C3F30223C3F10705042D00D90425191DA6
:10065000072901D2002300E0DB1E012606FA05F17E
:10066000491E214099409E40761E16403143F0BC01
:1006700001F0B7BD0CED00E0064900F00702086884
:100680004FF6FF03184040EA0220034A1043086077
:10069000704700000CED00E00000FA052DE9F0477E
:1006A0000F46050061D0434E306800F00700B842A5
:1006B00009D2306820F0070038433060306800F01D
:1006C0000700B84251D128683B4C810712D540073A
:1006D00003D5606840F4E06060602878000703D5C7
:1006E000606840F4605060606068A96820F0F000C5
:1006F000084360602878C00728D06868012810D0B7
:100700002168022810D0890700292EDA616821F0BB
:10071000030101436160FFF723FF804641F28839FE
:100720000DE021688903EFE78901EDE7FFF718FF86
:10073000A0EB0801494502D90320BDE8F0876068B5
:10074000696800F00C00B0EB810FEFD1306800F069
:100750000700B8420BD9306820F0070038433060FA
:10076000306800F00700B84201D00120E5E72878A2
:10077000400705D56068E96820F4E06008436060E0
:100780002878000706D56068296920F4605040EA9F
:10079000C100606000F038F86168084AC1F30311D5
:1007A000515CC8400649086006480068FFF7F8FE3B
:1007B0000020C2E70020024000100240602900082B
:1007C0000C00002004000020044805490068496826
:1007D000044AC1F30221515CC84070470C0000205C
:1007E0000010024070290008044805490068496863
:1007F000044AC1F3C221515CC84070470C0000207C
:1008000000100240702900080E4A51680E4801F09D
:100810000C03042B11D0082B0FD10C48C1F38343D8
:10082000C903C05C0AD55168084AC1F34041921E11
:10083000515C054A5043B0FBF1F07047044948430E
:10084000704700000010024000127A005029000892
:1008500000093D002DE9F84F040070D02078C04D0C
:10086000C00749D06868C0F38100012807D06868D4
:10087000C0F38100022809D16868C00306D5286842
:10088000800339D560680028E7D035E06068B0F5AE
:10089000803F0BD010B1B0F5A02F11D0286820F404
:1008A00080302860286820F4802002E0286840F426
:1008B00080302860606890B1FFF752FE06460AE07B
:1008C000286840F480202860F0E700BFFFF748FE6A
:1008D000801B642873D828688003F7D50CE0FFF7E5
:1008E0003FFE064605E000BFFFF73AFE801B642886
:1008F000F0D828688003F7D420789A4E80074FF00C
:1009000001094FF0000839D5686810F00C0F07D0C6
:100910006868C0F38100022809D16868C00306D462
:100920002868800714D52069012808D110E02069C3
:10093000B0B1C6F80090FFF713FE074605E00AE1E4
:10094000FFF70EFEC01B0228C4D828688007F7D521
:100950002868616920F0F80040EAC10028600DE0D5
:10096000C6F80080FFF7FCFD074604E0FFF7F8FD3E
:10097000C01B022823D828688007F7D420780007F6
:100980002CD57948A169D9B1C0F80090FFF7E8FDEE
:10099000074604E0FFF7E4FDC01B02280FD8686A91
:1009A0008007F7D571484FF4FA510068B0FBF1F0B9
:1009B000009000BF0098411E0091FAD20EE080E046
:1009C000C0F80080FFF7CCFD074604E0FFF7C8FD44
:1009D000C01B022875D8686A8007F7D420784007C2
:1009E00060D5E8690027C00008D4E86940F080506D
:1009F000E861E869012700F0805000905C480168D8
:100A0000C90513D40168834641F480710160FFF782
:100A1000A7FD824606E000BFFFF7A2FDA0EB0A009B
:100A200064284ED8DBF80000C005F5D5E068012841
:100A30000AD008B1052813D0286A20F001002862E6
:100A4000286A20F0040002E0286A40F001002862D1
:100A5000E06841F2883B98B1FFF782FD82460BE0E7
:100A6000286A40F004002862EEE700BFFFF778FD37
:100A7000A0EB0A0159455AD8286A8007F6D50CE040
:100A8000FFF76EFD824605E0FFF76AFDA0EB0A0165
:100A900059454CD8286A8007F6D41FB1E86920F080
:100AA0008050E861E06988B36968C1F38101022977
:100AB00044D00228C6F8608004D0FFF751FD0446F8
:100AC00038E034E0FFF74CFD074604E0FFF748FD4F
:100AD000C01B02282BD828688001F7D4206AB0F503
:100AE000803F05D16868A16820F400300843686041
:100AF000D4E908010843696821F474110843686067
:100B0000C6F86090FFF72CFD044606E025E000BF24
:100B1000FFF726FD001B022809D828688001F7D5B9
:100B20001BE000BFFFF71CFD001B022802D90320B9
:100B3000BDE8F88F28688001F4D40EE00128F7D0D2
:100B40006868226A00F48031914204D1616A00F43D
:100B50007010884201D00120EAE70020E8E7000099
:100B60000010024000004242800442420C0000207B
:100B70000070004010B5401EB0F1807F01D301200D
:100B800010BD4FF0E02460610F21601701F029FBD8
:100B90000020A06107202061002010BD7047704731
:100BA00010B590F83C20012A22D0012280F83C2088
:100BB000CA688C6822F4407222434C6822F4806236
:100BC00022430C6822F4006222430C6922F4805212
:100BD00022434C6922F400522243C969002322F4C3
:100BE00080420A4301684A6480F83C30002010BD0E
:100BF000022010BD70B590F83C20012A26D00124B7
:100C000080F83C40022280F83D2003685A689D68C5
:100C100022F070060A6832435A600D4B02689A420D
:100C200008D0B2F1804F05D00A4B9A4202D00A4B4D
:100C30009A4204D1496825F080031943916080F8F5
:100C40003D40002180F83C10084670BD022070BD78
:100C5000002C0140000400400008004010B50400D2
:100C600003D094F83D0010B107E0012010BD002032
:100C700084F83C00204600F01FF8022084F83D0074
:100C8000211D206801F04EF8012084F8460084F808
:100C90003E0084F83F0084F8400084F8410084F866
:100CA000420084F8430084F8440084F8450084F846
:100CB0003D00002010BD000008B5114A0168114830
:100CC000914208D1816941F400618161806900F439
:100CD0000060009008BD0C4A9142FBD1C16941F00F
:100CE0000401C161C069002200F0040000901146B7
:100CF0001E20FFF7A1FCBDE808401E20FFF78EBCB8
:100D0000002C0140001002400008004090F83D1007
:100D1000012901D001207047022180F83D100168AF
:100D2000CA6842F00102CA6000680B49884208D0D4
:100D3000B0F1804F05D00949884202D00849884265
:100D400004D1816801F00701062903D0016841F050
:100D50000101016000207047002C014000040040A8
:100D60000008004070B5044690F83C0000250128BA
:100D700017D0012684F83C60022084F83D002068EA
:100D8000826822F0770222F47F428260086850284D
:100D900038D00DDC20284FD005DC90B3102811D1BD
:100DA0004AE0022070BD302846D040280AD13BE0FE
:100DB00060282FD070280DD0B0F5805F03D0B0F53B
:100DC000005F12D0012584F83D60002084F83C00CB
:100DD000284670BDCB68D1E90121206800F0E5FF0D
:100DE0002068816841F0770109E0CB68D1E90121F1
:100DF000206800F0DAFF2068816841F4804181605A
:100E0000E1E719E0CA684968206801F083F85021D9
:100E1000206806E0CA684968206801F08CF8602103
:100E2000206800F0CCFFCEE7CA684968206801F06E
:100E300071F840212068F4E7226801461046F0E787
:100E40002DE9F0410D46040003D094F83D0018B19F
:100E500008E00120BDE8F081002084F83C00204635
:100E600000F040F8022084F83D002068816844F2D8
:100E7000070291438160211D206800F053FF226822
:100E800090689169166A2B68AF69034340F203309A
:100E9000814341EA0721A868EF6908434FF6FC4106
:100EA0008843E96840EA0720014328692F6A000166
:100EB00040EA0730084369686D6926F0220646EA71
:100EC0000515294393602268906154F8460B01622E
:100ED000012004F81F09E0752076E0762077A075E0
:100EE0000020B7E700B585B0002100910191029183
:100EF0000391026818491948B2F1804F19D0184B74
:100F00009A4214D1CA6942F00202CA61CA6902F067
:100F1000020204928A6942F004028A61896901F03E
:100F200004010491C02100916946FFF723FA05B03E
:100F300000BDCA6942F00102CA61CA6902F0010239
:100F400004928A6942F004028A61896901F004010D
:100F500004910321E7E7000000100240000801406F
:100F60000004004070B590F83E60044690F83F5091
:100F700090F8423090F84320022021B104290ED08D
:100F8000012E1BD114E0012E18D1012B16D184F8AB
:100F90003E0084F8420001220021206820E0012D5B
:100FA0000CD1012A0AD184F83F0084F8430014E0F0
:100FB000012D03D1012B01D1012A01D0012070BDE7
:100FC00084F83E0084F83F0084F8420084F843002F
:100FD00001220021206800F0DBFE012204212068AC
:100FE00000F0D6FE2068016841F001010160002098
:100FF00070BD704770B50446006801694FF0000588
:10100000C943890715D4C168C943890711D4E91EAA
:10101000016101202077206880698007204602D086
:10102000FFF7E7FF04E000F0BFF8204600F051F9B9
:10103000257720680169C943490717D4C168C943A6
:10104000490713D46FF00401016102202077206862
:10105000806910F4407F204602D0FFF7CAFF04E009
:1010600000F0A2F8204600F034F9257720680169E5
:10107000C943090716D4C168C943090712D46FF0E0
:1010800008010161042020772068C069800720469C
:1010900002D0FFF7AEFF04E000F086F8204600F033
:1010A00018F9257720680169C943C90617D4C168B2
:1010B000C943C90613D46FF01001016108202077DD
:1010C0002068C06910F4407F204602D0FFF791FFEE
:1010D00004E000F069F8204600F0FBF8257720686E
:1010E0000169C943C90708D1C168C943C90704D107
:1010F000891E0161204600F03BF920680169C9435F
:10110000090609D4C168C943090605D46FF08001F6
:1011100001612046FFF742FD20680169C943490685
:1011200009D4C168C943490605D46FF04001016183
:10113000204600F053F920680169C94389060BD4A1
:10114000C168C943890607D46FF0200101612046B8
:10115000BDE87040FFF723BD70BD000000B585B04D
:101160000021009101910291039100680B4988428E
:1011700012D10B48816941F004018161806969469F
:1011800000F0040004904FF44070009002200190A1
:1011900003900448FFF7EEF805B000BD002C0140B5
:1011A0000010024000080140704770B5044690F8F6
:1011B0003C0000260D4601280FD0012084F83C0099
:1011C0006AB1042A1DD0082A2FD00C2A3FD001264C
:1011D000002084F83C00304670BD022070BD2068BD
:1011E00000F0F6FD2068816941F008018161206806
:1011F000816921F004018161206881692A691143B4
:1012000011E0206800F00CFE2068816941F4006163
:1012100081612068816921F4806181612068816930
:101220002A6941EA02218161D2E7206800F024FEA8
:101230002068C16941F00801C1612068C16921F0DD
:101240000401C1612068C1692A69114311E0206865
:1012500000F03EFE2068C16941F40061C161206870
:10126000C16921F48061C1612068C1692A6941EACC
:101270000221C161ACE710B5040003D094F83D0031
:1012800010B107E0012010BD002084F83C0020468A
:1012900000F01EF8022084F83D00211D206800F0B7
:1012A00041FD012084F8460084F83E0084F83F00A8
:1012B00084F8400084F8410084F8420084F8430038
:1012C00084F8440084F8450084F83D00002010BDF7
:1012D0007047704710B50446022249B104290ED068
:1012E000082913D094F84100012816D0012010BD20
:1012F00094F83E000128F9D184F83E200FE094F8DC
:101300003F000128F2D184F83F2008E094F8400023
:101310000128EBD184F8402001E084F8412001222B
:10132000206800F035FD0F492068884203D1426CE7
:1013300042F4004242642068884208D0B0F1804FF5
:1013400005D00949884202D00849884204D1816801
:1013500001F00701062903D0016841F00101016095
:10136000002010BD002C0140000400400008004097
:1013700010B5044600681649884201D100F0DAFE33
:1013800023684FF08040134942F2107283420BD120
:10139000436A934202D28868401C04E0406A90424B
:1013A00014D98868401E88600B4B206898420DD184
:1013B000094824300368934202D2C869401C04E003
:1013C0000068904202D9C869401EC86110BD000083
:1013D0000008004090010020000400407047704762
:1013E00070470000F8B5016804460868CA684B6990
:1013F00010F00F0F4FF0000559D003F0010602F472
:101400009077374365D0C10705D0D10503D5616C0E
:1014100041F001016164410705D5D90703D0616C32
:1014200041F002016164810705D5D90703D0616CE1
:1014300041F004016164010707D502F02001314346
:1014400003D0616C41F008016164616C00293AD0FD
:10145000800604D5900602D5204600F0ADFD206838
:101460004069616CC0F38010090700D460B3204666
:1014700000F07BFD20684069400621D520681430CB
:1014800050E8001F21F0400140E80012002AF5D189
:10149000E06BA8B16D494163E06BFEF71FFF0028C8
:1014A00011D0E06B416B01B0BDE8F0400847830606
:1014B0000FD593060DD52046BDE8F84000F07CBD61
:1014C0002046FFF78DFFF8BD2046FFF789FF6564D2
:1014D000F8BD266B2023012E7CD1C6067AD5D60610
:1014E00078D508684868009048694FF002064006C1
:1014F00040D5E16B086840680004000CE8D0A28D7C
:101500008242E5D9E085886920282DD020680C30FA
:1015100050E8001F21F4807140E80012002AF5D144
:101520002068143050E8001F21F0010140E800124B
:10153000002AF5D12068143050E8001F21F0400146
:1015400040E80012002AF5D184F842302563206873
:101550000C3050E8001F21F0100140E80012002A72
:10156000F5D1E06BFEF797FE6663A08DE18D401A22
:1015700081B22AE0A08DE18D401A81B2E08D002871
:10158000A6D00029A4D022680C3252E8000F20F423
:10159000907042E80007002FF5D12068143050E821
:1015A000002F22F0010240E80027002FF5D184F837
:1015B0004230256320680C3050E8002F22F01002E2
:1015C00040E80023002BF5D166632046FFF707FFB4
:1015D000F8BDFFE705062BD5150629D594F841007F
:1015E0002128F5D1A068B0F5805F01D12069B0B1A4
:1015F000206A411C2162216800784860E08C401E0E
:101600000004000CE084E3D12068C16821F080016F
:10161000C1602068C16841F04001C160D8E7206A1C
:101620000088C0F308004860206A801C2062E5E75B
:101630004006CDD55006CBD5CA68204622F04002E0
:10164000CA6084F8413000F076F8C1E75B1F0008FB
:1016500070B5040004D094F84100002510B106E0F4
:10166000012070BD84F84050204600F023F824206B
:1016700084F841002068C16821F40051C16020460F
:1016800000F0FCFC2068016921F4904101612068B0
:10169000416921F02A0141612068C16841F400518B
:1016A000C1606564202084F8410084F842006563CD
:1016B000002070BD30B585B00024009401940294E0
:1016C00003940068184988422BD11848C16941F435
:1016D0000031C161C16901F400310491816941F0B7
:1016E000040181618069124D00F00400049004201F
:1016F0000090022001900320039069462846FEF7DF
:1017000039FE0820CDE90004694628460294FEF718
:1017100031FE002211462620FEF78EFF2620FEF71E
:101720007DFF05B030BD00000044004000100240C5
:101730000008014070477047FEE700002DE9F041C6
:10174000184F386801282AD1DFF85C80002508F19D
:10175000280600BF05EB850108EB8100C168C5EBD9
:10176000C50000EB400006EB80042046A164E26C5B
:1017700000F080F92065204600F005FA6D1C022D6E
:10178000E8DB306D00F08AFE084C21684863D6F82B
:10179000A40000F083FE2168886300203860BDE863
:1017A000F08100001000002090010020280000209F
:1017B00070B586B0002418480094019402940394F4
:1017C000816941F020018161816901F0200104916A
:1017D000816941F004018161816901F00401049192
:1017E000816941F00801816180690C4E00F00800B8
:1017F0004FF470750490002229463046FEF7AAFE89
:1018000001200095CDE9010402200390694630468D
:10181000FEF7B0FD06B070BD00100240000C0140A4
:1018200010B596B000240F94109411941294139450
:101830001C2168461494FEF7C7FC202107A8FEF778
:10184000C3FC2D482B4901604721C0E9011440F237
:10185000E731C0E9031444618461FFF7FFF908B17F
:10186000FEF717FD4FF480500F900FA92248FFF7A5
:1018700079FA08B1FEF70DFD1F48FFF7FCFC08B12F
:10188000FEF707FD139413A91B481494FFF7B2F950
:1018900008B1FEF7FEFC602000904FF4FA70CDE92D
:1018A00001040394049405940022694612480694A6
:1018B000FFF77BFC08B1FEF7ECFC042269460E48FA
:1018C000FFF773FC08B1FEF7E4FC07940894099451
:1018D0004FF400500A94CDE90B4007A906480E9436
:1018E000FFF75EF908B1FEF7D4FC0348FFF736FCBA
:1018F00016B010BD002C01402800002010B58CB09F
:1019000024216846FEF760FC0024154809944FF036
:1019100080410A94C0E900144FF6FF71C0E902410A
:10192000046184610320CDE900040120CDE90204B3
:101930000494CDE905400794694609480894FFF7E7
:101940007FFA08B1FEF7A5FC099409A904480A9496
:10195000FFF750F9002801D0FEF79BFC0CB010BD3A
:101960007000002010B58CB024216846FEF72CFCD6
:1019700000241648099414490A94C0E900144FF64B
:10198000FF71C0E90241046184610320CDE90004D4
:101990000120CDE902040494CDE90540079469468D
:1019A0000A480894FFF74CFA08B1FEF772FC099454
:1019B00009A906480A94FFF71DF9002801D0FEF78F
:1019C00068FC0CB010BD000000040040B80000200E
:1019D00010B586B000241748009401940294039433
:1019E00004941349059401604721C0E9011442F2AF
:1019F0000F71C0E903148461FFF730F908B1FEF7F5
:101A000048FC4FF48050009069460A48FFF7AAF955
:101A100008B1FEF73EFC049404A906480594FFF7BC
:101A2000E9F8002801D0FEF734FC06B010BD000034
:101A300000080040000100200C4810B50A49016070
:101A40004FF4E1314160002181600C22C160C0E9A6
:101A500004128161C161FFF7FBFD002803D0BDE8DE
:101A60001040FEF716BC10BD0044004048010020A5
:101A7000FEE7FEE72DE9F0470446006C606481460E
:101A8000E06B2064C4E906218046104600F07AFE2F
:101A90000546E063207810B1012839D035E02946A9
:101AA000606800F067FD60622946A06800F062FD92
:101AB000A16A00F0BDFB0646A062606BA063206BCC
:101AC00060634146284600F05DFE01462063E06801
:101AD00000F050FDE0623046616900F017FE606979
:101AE00008D380F00040A16A00F010FE03D26069C4
:101AF00080F00040A062D4E9090100F099FBE16A9E
:101B000032E0206980F000402062206ABDE8F08762
:101B10004146284600F036FE616800F02BFD07467E
:101B200060622946A06800F025FD0646A062606B51
:101B3000A063206B60630121404600F0CAFE294685
:101B400000F015FE494600F073FB01462063E06893
:101B500000F010FD0546E0623146384600F068FBB3
:101B6000294600F065FB216A00F062FB20622169D2
:101B700000F0CCFD2069C7D380F00040216A00F05E
:101B8000C5FDC2D2BDE7002141640164C163816328
:101B900041630163C1628162416201628161C1612D
:101BA000704710B500F10C0C029C01701168416087
:101BB0005168816091688CE81A000021816341635B
:101BC00001630162C1628162416241640164C16377
:101BD00010BD000010B50B4C012240212046FEF73D
:101BE000B9FC002280212046FEF7B4FC012211023C
:101BF0002046FEF7AFFC002261152046BDE81040EC
:101C0000FEF7A8BC000C01407047000038B5224C1C
:101C1000002104F10C02A068009020486368FFF7DF
:101C2000C0FFA06800901D4804F10C020021543050
:101C30006368FFF7B6FF1A48FFF768F800211948F4
:101C4000FFF748FB04211748FFF744FB3C211648E7
:101C5000FFF788F93C211548FFF784F9124801681D
:101C6000CA6842F00102CA6010490A68D36843F0AA
:101C70000103D360006842F2107242620868426257
:101C80000649002028398860C86190062831C86458
:101C9000C1F8A00038BD000010000020B8010020ED
:101CA000000100202800002070000020B800002063
:101CB0007047FEF75BBC30B58FB028216846FEF751
:101CC00083FA14210AA8FEF77FFA01210804CDE95E
:101CD00000100024029402250491CDE907504FF42E
:101CE000E01009906846FEF7B5FD08B172B6FEE750
:101CF0000F20CDE90A054FF48060CDE90C400221A8
:101D00000AA80E94FEF7CAFC002801D072B6FEE7BE
:101D10000FB030BD704700000148FFF76BB90000FD
:101D200000010020F0B50268164B174C174D4FF01C
:101D30008047984205D0B84203D0A04201D0A842C3
:101D400003D122F070064A683243984205D0B84267
:101D500003D0A04201D0A84203D122F44074CA6843
:101D600022434C6922F08002224302608A68C262E8
:101D70000A688262984201D10969016301214161C7
:101D8000F0BD0000002C01400004004000080040AD
:101D900010B501F01F030121046A99408C430462CD
:101DA000016A9A401143016210BD10B5846842EA8D
:101DB000032224F47F440A432243826010BD8268D8
:101DC00022F070020A4342F0070181607047000070
:101DD00030B5036A026A22F0010202624268846935
:101DE00024F073050C682C4323F002058B682B4309
:101DF0000A4DA8420BD123F00805CB6822F44072AB
:101E00002B434D6923F0040315438A692A4342603A
:101E1000846149684163036230BD0000002C0140C9
:101E200030B5026A036A23F01003036243688469D1
:101E30000D6824F4E64444EA05248D6822F020026B
:101E400042EA05120B4DA8420ED1CD6822F0800265
:101E500042EA05124D6923F4406343EA85038D6924
:101E600022F0400243EA850343608461496881634C
:101E7000026230BD002C014030B5036A026A22F4D0
:101E8000807202624268C46923F4007324F073050F
:101E90000C682C438D6843EA05230C4DA8420ED1F3
:101EA000CD6823F4006343EA05234D6922F44052D0
:101EB00042EA05128D6923F4806342EA051242600A
:101EC000C4614968C163036230BD0000002C014059
:101ED00030B5046A026A22F4805202624268C36921
:101EE0000D6823F4E64343EA05238D6824F4005487
:101EF00044EA0534064DA84204D14D6922F48042DB
:101F000042EA85124260C36149680164046230BDDF
:101F1000002C014010B5036A046A24F00104046235
:101F2000846924F0F00444EA021423F00A020A430C
:101F30008461026210BD10B5036A046A24F01004C3
:101F40000462846923F0A00324F4704444EA02325A
:101F500043EA01118261016210BD10B5406A00219F
:101F6000C185C184FFF73CFA10BD01680C3151E80E
:101F7000002F22F4907241E80023002BF5D1016874
:101F8000143151E8002F22F0010241E80023002B18
:101F9000F5D1016B012909D101680C3151E8002FFD
:101FA00022F0100241E80023002BF5D1202180F817
:101FB000421000210163704708B590F842102229B1
:101FC00001D0022008BD82684FF480539A4201D1AB
:101FD000016921B1816A9A421BD04AB10AE00268C4
:101FE000816A5268C2F308020A80816A891C08E08B
:101FF000026972B10268526802F07F020A70816A57
:10200000491C8162C18D491E0904090CC18503D098
:102010001BE002685268F1E70168CA6822F02002FA
:10202000CA600168CA6822F48072CA6001684A699D
:1020300022F001024A61202180F842100021416310
:10204000026B012A03D0FFF775FB002008BD016376
:1020500001680C3151E8002F22F0100241E8002302
:10206000002BF5D101680A68D20602D50A684968D2
:102070000091818DFFF7B3F9E7E7000070B50446E2
:1020800000680169E26821F440511143016121694E
:10209000A0680843616908432168CA6841F20C637B
:1020A0009A430243CA6020684169A26921F44071E1
:1020B000114341611E492068884202D1FEF794FB1A
:1020C00001E0FEF781FB00EBC00101EB001260684C
:1020D00064218000B2FBF0F3B3FBF1F36FF018065C
:1020E0007343B2FBF0F5B2FBF0F605EB8305322348
:1020F00003EB0515B5FBF1F5B6FBF1F605F0F005C0
:1021000005EB0615B2FBF0F6B2FBF0F0B0FBF1F018
:102110006FF01802504306EB800003EB0010B0FB99
:10212000F1F0216800F00F002844886070BD0000C5
:10213000003801402DE9F047214E306800283DD19C
:102140004FF08040416AC26AA1EB52011D4A09B2B8
:102150001368DFF8708008F10808D8F800201A4CDE
:10216000A3EB520217B2A268C06A424301EB5205C8
:1021700065602068281A00F0B1F9DFF850904946F0
:1021800000F0F8F9DFF848A0514600F0C5F82560E6
:10219000E060E069D8F80010484307EB5005A561FE
:1021A0006069281A00F09AF9494600F0E3F95146AF
:1021B00000F0B2F86561206201203060BDE8F08770
:1021C0001000002024040040900100200080BB4546
:1021D0000000C3440148FFF705B900004801002092
:1021E000FEE70907090E002804DB00F1E02080F873
:1021F0000014704700F00F0000F1E02080F8141D7B
:102200007047FEF7BBF9FFF756FDFFF7D1FAFFF76E
:1022100007FBFFF773FBFFF7A5FBFFF7D9FBFFF702
:102220000BFCFFF7F3FCFFF7D5FCFFF787FAFAE7A3
:1022300090EA010F48BF81F0004100F1AA82421AE2
:102240003CBF801A89184FEAD0524FF07F4C1CEAED
:10225000410FA2EBD15318BF9CEA026F00F03B8004
:102260004FF0004C4CEA00204CEA012121FA03FC1B
:1022700010EB0C0C1ED202F1FF325FEA1C2040EB87
:10228000C25038BF70471CF07F0F4FEA400C18BF98
:10229000BCF17F4F38BF7047C3F12003994008BF9E
:1022A00020F00100BCF17F4F38BF7047A0F1C04063
:1022B00000F027BA4FEA3C00000A40EBC25028BFAA
:1022C0001CF0FF0F4FEA400CE6D018BFBCF17F4F67
:1022D00038BF7047EAE79CEA026F05D010EA5C0F4E
:1022E00008BF00F00040704710B500F0C4F900BF0F
:1022F00064FBBE3E014800F0BABA00BF0000C07FD8
:10230000401058BFC0F14040491058BFC1F1404192
:102310008142EFF3008070474FF47F0C1CEAD0122B
:102320001EBF1CEAD11392EA0C0F93EA0C0F00F0C7
:10233000858090EA010F48BF42F4807240F4000C9F
:1023400041F400002CF07F4120F07F4000B5814235
:10235000A2EB03020FF2081CACEB504EC0F10000E0
:102360009EF800E04FEA4E0E00FB0EFC38BF49001D
:102370004FEA2C1C02F5FA020CFB0EF34FEACE1EBC
:102380004FEA112C4FEAC1210EEB635E42EB224271
:102390000EFB0CFC4FEA1C5300FB03114FEA112CFF
:1023A0004FEA01310EFB0CFC4FEADC4C00FB0C1138
:1023B000C14228BF09184CEB03335DF804EB10EB66
:1023C000410143EBC250B2F57C0F38BF704729D5AD
:1023D00012F0F00F1CBF00F1C04000F00040704749
:1023E000008182838485868788898B8C8D8E8F91EE
:1023F0009293959697999A9C9D9FA0A2A3A5A7A812
:10240000AAACAEB0B2B3B5B7B9BCBEC0C2C5C7C93D
:10241000CCCED1D4D7D9DCDFE2E6E9ECF0F3F7FAA1
:10242000FE0000004FEA400C0CF1807CBCF17E4FB6
:1024300028BF7047B0F1C04000F063B990EA010FC7
:102440000CEAD11348BF42F48072624538BF63453D
:1024500007D213F47F0F16D080EA010000F000408D
:10246000704710B500F007F9097EFC3E00F005B892
:1024700080EA010000F00040704780EA010000F0AF
:10248000004000F03EB912F47F0F04BF02487047CD
:1024900080EA010000F035B90000C07FC10DD1F124
:1024A0009E0206DB4FEA002343F0004323FA02F0CA
:1024B0007047004207D54FEA4001B1F1FE4F02D20A
:1024C0004FF00000704710B500F0D5F84992248015
:1024D000002070476FEA20007047000010F00041B4
:1024E00048BF4042B0FA80F310FA03F2C3F19D03F3
:1024F0000BD051EAC35101EB1220530638BF70478D
:1025000000F1010008BF20F00100704750EA010C03
:1025100000F113801CF5000F58BFBCF5000F01D46B
:102520008842704707D710F5000F58BF11F5000F0C
:1025300015D488427047894270471CF5000F04D5B6
:10254000BCF5000FF7D5814270474FF0807C1CEB43
:10255000400F38BF1CEB410F01D28142704710B5CC
:1025600000F089F8922449004FF000504FF080515C
:10257000FFF7C6BE4FF47F0C1CEAD0121EBF1CEA48
:10258000D11392EA0C0F93EA0C0F00F0478090EA07
:10259000010F48BF42F480724FF0004C4CEA00201B
:1025A0004CEA012102EB0302A0FB0113A2F5000299
:1025B000002918BF43F001035B0028BF4FEA330333
:1025C00042EB22425FEA132C4CEBC2502EBFBCEB15
:1025D000436FB2F57C0F70474FEA036CBCF1004FBC
:1025E00008BF20F00100B2F57C0F38BF70470BD553
:1025F00082F0FF0212F5803FC8BF704700F1C04073
:10260000D8BF00F00040704700F5000C5FEA4C0CAA
:1026100048BF7047B0F1C04000F073B890EA010FB6
:102620000CEAD11348BF42F48072624538BF63455B
:1026300004D280EA010000F00040704710B500F0BD
:102640001AF800BF8900013E00F007B800F009B891
:102650005FEA410C5FEA1C6C08D080EA010000F0E0
:1026600050B85FEA400C5FEA1C6CF6D14FF00040B6
:10267000A0F5800070470EF1020E2EF0030E5EF8FA
:10268000044B244204D44FEA4102B2F17F4F11D8E7
:102690004FEA4003B3F17F4F0CD80ED14FEAD07C04
:1026A000B2F17F4F0CEB4C0C0CF1020C08BF4CEB61
:1026B000D17C04E04FF0080C01E04FEAD17C0CEB38
:1026C0004C0324FA03F404F00704B4F1040C06D21A
:1026D0000EEB840CBDE810404CF0010C6047DFE8C5
:1026E0000CF0070802024FF00040A0F5800010BD7A
:1026F0000846420018BFD2F1807288BF00F0004047
:1027000010BDFF2141EAD050C005704751EA000CCE
:1027100000F113801CF5000F58BFBCF5000F01D469
:102720008142704707D711F5000F58BF10F5000F11
:1027300015D481427047894270471CF5000F04D5BB
:10274000BCF5000FF7D5884270474FF0807C1CEB3A
:10275000410F38BF1CEB400F01D28842704780EA1E
:10276000010081EA000180EA0100FFF7F8BE80F075
:10277000004090EA010F7FF562AD81F0004100F06A
:1027800008B8000090EA010F48BF81F000413FF512
:1027900056AD421A04D882F00042A0EB0200114468
:1027A0004FEAD0524FF07F4C1CEA410FA2EBD153BD
:1027B00018BF9CEA026F4AD04FF0004C4CEA002050
:1027C0004CEA012121FA03FCB0EB0C0C0FD412F0FF
:1027D000FE0F36D05FEA4C001DD5001240EBC25010
:1027E00038BF70471CF03F0F18BF70470BE0A2F1D5
:1027F00001025FEA1C2040EBC25038BF70471CF05A
:102800007F0F18BF7047C3F12003994014BF401ECB
:1028100020F00100704780084FEA122308BF70477C
:10282000B0FA80FCA2EB0C02CCF1280C60FA0CF0A0
:1028300093EA122F04BF00EBC25070474FEAC370F7
:102840007047130A5FEADC1008BF7047F6E79CEA9E
:10285000026F04D010EA5C0F08BF0020704710B56B
:10286000FFF709FF40DFF63E81F0004070470CF0B3
:102870000F03092B08BF082000F051800A2B0BD052
:10288000082B18BF704708BF1CF0400F0AD04FF04C
:1028900000004FF0000170471CF0400F18BF4FF0D0
:1028A000004070471CF0100F08D020F0704300F07B
:1028B0007F4242EAD3014FEA4370704700F0604024
:1028C00021F07F4242EA000201F07F4040EA72704C
:1028D00070474FF0FF0212EAD0521CBF92F0FF0384
:1028E0008B42C2BFD14200EBC1507047002A0AD0D0
:1028F000002B0BD0002900F00040A4BF40F0FE40A8
:1029000040F40000704700F00040704743024FF071
:102910000B0C18BF4CF0806C7FF4ECAC70471CF4CF
:10292000801F11D01CF4E02F03D06FEACC31490096
:1029300070474FF04050EFF3008222F0704242EABD
:10294000000282F3008870474FF0000070470102D8
:1029500002030405060708090A0B0C0D0E0F1010E0
:10296000000000000000000001020304060708093F
:102970000000000001020304982900080000002064
:102980002800000028010008C029000828000020B5
:102990009808000044010008010000001000000039
:1029A000000000000024F4000000000000401C466D
:1029B00000401C4600002041000080BF0000404055
:04000005080000ED02
:00000001FF
