:020000040800F2
:10000000780800208901000853150008CB12000869
:10001000511500088F020008551900080000000063
:100020000000000000000000000000002116000891
:100030009102000800000000851500082316000842
:10004000A3010008A3010008A3010008A301000800
:10005000A3010008A3010008A3010008A3010008F0
:10006000A3010008A3010008A3010008A3010008E0
:10007000A3010008A3010008A3010008A3010008D0
:10008000A3010008A3010008A3010008A3010008C0
:10009000A3010008A3010008A3010008A3010008B0
:1000A000A3010008A3010008A3010008A3010008A0
:1000B000A3010008A301000889160008A301000895
:1000C000A3010008A3010008A3010008A301000880
:1000D000A3010008A3010008A3010008A301000870
:1000E000A3010008A3010008A301000800F002F822
:1000F00000F03AF80AA090E8000C82448344AAF188
:100100000107DA4501D100F02FF8AFF2090EBAE885
:100110000F0013F0010F18BFFB1A43F0010318473B
:10012000E81B0000081C0000103A24BF78C878C102
:10013000FAD8520724BF30C830C144BF04680C60ED
:10014000704700000023002400250026103A28BF35
:1001500078C1FBD8520728BF30C148BF0B60704739
:100160001FB51FBD10B510BD00F058F81146FFF7C0
:10017000F7FF01F000FC00F076F803B4FFF7F2FFA0
:1001800003BC00F07DF8000009488047094800479B
:10019000FEE7FEE7FEE7FEE7FEE7FEE7FEE7FEE737
:1001A000FEE7FEE704480549054A064B7047000094
:1001B00085160008ED00000878020020780800206D
:1001C00078040020780400204FF0000200B51346A8
:1001D00094469646203922BFA0E80C50A0E80C5067
:1001E000B1F12001BFF4F7AF090728BFA0E80C5018
:1001F00048BF0CC05DF804EB890028BF40F8042B11
:1002000008BF704748BF20F8022B11F0804F18BF7D
:1002100000F8012B7047704770477047754600F033
:100220002BF8AE4605006946534620F00700854688
:1002300018B020B5FFF7B6FFBDE820404FF000062C
:100240004FF000074FF000084FF0000B21F00701BE
:10025000AC46ACE8C009ACE8C009ACE8C009ACE801
:10026000C0098D46704710B50446AFF300802046A4
:10027000BDE81040FFF781BF00487047140200201E
:1002800001491820ABBEFEE7260002007047FEE7DA
:10029000704772B6FEE700002DE9F84FDFF8B8911D
:1002A0000024A9F1040B23460F2709F1040AABF13E
:1002B000040EC9E00125A5402A40AA427DD1674E1F
:1002C000D1F804C0ACEB0608B44532D014DCBCF164
:1002D000030F3AD009DCBCF1000F2AD0BCF1010FAA
:1002E0001CD0BCF1020F31D11DE0BCF1110F17D0B1
:1002F000BCF1120F2AD119E0B8F5881F19D006DC1D
:10030000B8F5803F15D0B8F5801F1FD111E0B8F5C2
:10031000001F0ED0B8F5041F18D10AE0CB6815E015
:10032000CB681B1D12E0CB6808330FE0CB680C33A1
:100330000CE08B682BB1012B4FF0080303D0456113
:1003400004E0042302E0056100E00023FF2A01D855
:10035000064601E000F104064FEA840501D9A5F143
:100360002005D6F8008007FA05FC28EA0C0803FAF5
:1003700005F548EA0508C6F800804D68ED0062D52D
:10038000374DAE6946F00106AE61AD6924F0030653
:1003900005F001050095334D06EB050CDCF808501F
:1003A000A607360F07FA06F825EA0805DFF8B88031
:1003B000404503D14FF0000817E044E0DFF8AC807F
:1003C000404502D14FF001080FE0DFF8A48040451E
:1003D00002D14FF0020808E0DFF89880404502D1D2
:1003E0004FF0030801E04FF0040808FA06F848EA65
:1003F0000508CCF808804D68D9F80060ED024D463C
:1004000001D5164300E096432E604D68DAF800608F
:10041000AD02554601D5164300E096432E604D6867
:10042000DBF80060AD035D4601D5164300E096435E
:100430002E604D68DEF80060ED03754601D5164369
:1004400000E096432E60641C0D682A46E5407FF468
:1004500031AFBDE8F88F0000080401400000111022
:10046000001002400000014000080140000C014063
:1004700000100140001401400AB1016170470904F5
:10048000FBE7000001488068704700000000002082
:1004900002488168027811448160704700000020A2
:1004A000074810B5016841F010010160032000F019
:1004B00075F80F2000F006F800F024F8002010BDB9
:1004C0000020024070B50D4D04464FF47A71287833
:1004D000B1FBF0F00A490968B1FBF0F000F0BCFA9A
:1004E00048B9102C07D200222146501E00F036F8E1
:1004F00000206C6070BD012070BD00000000002075
:100500000C0000200C4808B5816941F001018161AF
:10051000816901F001010091C16941F08051C1611F
:10052000C06900F0805000900448416821F0E0610B
:1005300041F00071416008BD001002400000014020
:10054000002809DB00F01F020121914040098000D2
:1005500000F1E020C0F8001170470000F0B40E4B2D
:100560001B680C46C3F30223C3F10705042D00D911
:100570000425191D072901D2002300E0DB1E0126F6
:1005800006FA05F1491E214099409E40761E16400C
:100590003143F0BC01F0DFB90CED00E0064900F09A
:1005A000070208684FF6FF03184040EA0220034A9A
:1005B00010430860704700000CED00E00000FA05F1
:1005C0002DE9F0470F46050061D0434E306800F03A
:1005D0000700B84209D2306820F007003843306085
:1005E000306800F00700B84251D128683B4C8107C1
:1005F00012D5400703D5606840F4E0606060287859
:10060000000703D5606840F4605060606068A968C6
:1006100020F0F000084360602878C00728D06868A0
:10062000012810D02168022810D0890700292EDA6D
:10063000616821F0030101436160FFF723FF8046F9
:1006400041F288390DE021688903EFE78901EDE780
:10065000FFF718FFA0EB0801494502D90320BDE8C8
:10066000F0876068696800F00C00B0EB810FEFD193
:10067000306800F00700B8420BD9306820F007005E
:1006800038433060306800F00700B84201D00120E4
:10069000E5E72878400705D56068E96820F4E06060
:1006A000084360602878000706D56068296920F44F
:1006B000605040EAC100606000F018F86168084AC4
:1006C000C1F30311515CC840064908600648006840
:1006D000FFF7F8FE0020C2E70020024000100240B1
:1006E000F61C00080C000020040000200E4A51688F
:1006F0000E4801F00C03042B11D0082B0FD10C482D
:10070000C1F38343C903C05C0AD55168084AC1F3E9
:100710004041921E515C054A5043B0FBF1F07047D6
:1007200004494843704700000010024000127A005C
:10073000E61C000800093D002DE9F84F040070D0C8
:100740002078C04DC00749D06868C0F381000128F7
:1007500007D06868C0F38100022809D16868C00327
:1007600006D52868800339D560680028E7D035E0D1
:100770006068B0F5803F0BD010B1B0F5A02F11D05C
:10078000286820F480302860286820F4802002E067
:10079000286840F480302860606890B1FFF772FEEE
:1007A00006460AE0286840F480202860F0E700BF91
:1007B000FFF768FE801B642873D828688003F7D58C
:1007C0000CE0FFF75FFE064605E000BFFFF75AFEAC
:1007D000801B6428F0D828688003F7D420789A4ECC
:1007E00080074FF001094FF0000839D5686810F014
:1007F0000C0F07D06868C0F38100022809D168682F
:10080000C00306D42868800714D52069012808D1C0
:1008100010E02069B0B1C6F80090FFF733FE07463C
:1008200005E00AE1FFF72EFEC01B0228C4D82868A5
:100830008007F7D52868616920F0F80040EAC10018
:1008400028600DE0C6F80080FFF71CFE074604E0B4
:10085000FFF718FEC01B022823D828688007F7D4AA
:10086000207800072CD57948A169D9B1C0F800904B
:10087000FFF708FE074604E0FFF704FEC01B02284E
:100880000FD8686A8007F7D571484FF4FA510068AD
:10089000B0FBF1F0009000BF0098411E0091FAD229
:1008A0000EE080E0C0F80080FFF7ECFD074604E0B2
:1008B000FFF7E8FDC01B022875D8686A8007F7D4E7
:1008C0002078400760D5E8690027C00008D4E869AF
:1008D00040F08050E861E869012700F08050009006
:1008E0005C480168C90513D40168834641F48071EE
:1008F0000160FFF7C7FD824606E000BFFFF7C2FDBB
:10090000A0EB0A0064284ED8DBF80000C005F5D53E
:10091000E06801280AD008B1052813D0286A20F021
:1009200001002862286A20F0040002E0286A40F0F2
:1009300001002862E06841F2883B98B1FFF7A2FD10
:1009400082460BE0286A40F004002862EEE700BF10
:10095000FFF798FDA0EB0A0159455AD8286A80078D
:10096000F6D50CE0FFF78EFD824605E0FFF78AFD25
:10097000A0EB0A0159454CD8286A8007F6D41FB16C
:10098000E86920F08050E861E06988B36968C1F3E4
:100990008101022944D00228C6F8608004D0FFF704
:1009A00071FD044638E034E0FFF76CFD074604E0D3
:1009B000FFF768FDC01B02282BD828688001F7D4F8
:1009C000206AB0F5803F05D16868A16820F4003046
:1009D00008436860D4E908010843696821F4741188
:1009E00008436860C6F86090FFF74CFD044606E0D7
:1009F00025E000BFFFF746FD001B022809D8286844
:100A00008001F7D51BE000BFFFF73CFD001B02286B
:100A100002D90320BDE8F88F28688001F4D40EE0E5
:100A20000128F7D06868226A00F48031914204D12D
:100A3000616A00F47010884201D00120EAE70020CA
:100A4000E8E70000001002400000424280044242F9
:100A50000C0000200070004010B5401EB0F1807FF7
:100A600001D3012010BD4FF0E02460610F21601719
:100A700000F071FF0020A06107202061002010BD60
:100A80007047704710B590F83C20012A22D001220F
:100A900080F83C20CA688C6822F4407222434C687B
:100AA00022F4806222430C6822F4006222430C6923
:100AB00022F4805222434C6922F400522243C96935
:100AC000002322F480420A4301684A6480F83C30E3
:100AD000002010BD022010BD70B590F83C20012A06
:100AE00026D0012480F83C40022280F83D20036893
:100AF0005A689D6822F070060A6832435A600D4BAE
:100B000002689A4208D0B2F1804F05D00A4B9A424F
:100B100002D00A4B9A4204D1496825F08003194358
:100B2000916080F83D40002180F83C10084670BD7F
:100B3000022070BD002C014000040040000800406D
:100B400010B5040003D094F83D0010B107E0012077
:100B500010BD002084F83C00204600F01FF8022061
:100B600084F83D00211D206800F094FD012084F8E8
:100B7000460084F83E0084F83F0084F8400084F882
:100B8000410084F8420084F8430084F8440084F86B
:100B9000450084F83D00002010BD000008B5114A52
:100BA00001681148914208D1816941F40061816175
:100BB000806900F40060009008BD0C4A9142FBD1AE
:100BC000C16941F00401C161C069002200F0040064
:100BD000009011461E20FFF7C1FCBDE808401E2012
:100BE000FFF7AEBC002C014000100240000800409E
:100BF00090F83D10012901D001207047022180F8B2
:100C00003D100168CA6842F00102CA6000680B49E1
:100C1000884208D0B0F1804F05D00949884202D0FF
:100C20000849884204D1816801F00701062903D0F0
:100C3000016841F00101016000207047002C014073
:100C4000000400400008004070B5044690F83C00E5
:100C50000025012817D0012684F83C60022084F882
:100C60003D002068826822F0770222F47F42826091
:100C70000868502838D00DDC20284FD005DC90B310
:100C8000102811D14AE0022070BD302846D04028FB
:100C90000AD13BE060282FD070280DD0B0F5805FDE
:100CA00003D0B0F5005F12D0012584F83D6000202C
:100CB00084F83C00284670BDCB68D1E9012120684A
:100CC00000F02BFD2068816841F0770109E0CB68D6
:100CD000D1E90121206800F020FD2068816841F4FD
:100CE00080418160E1E719E0CA684968206800F046
:100CF000C9FD5021206806E0CA684968206800F0F4
:100D0000D2FD6021206800F012FDCEE7CA68496874
:100D1000206800F0B7FD40212068F4E72268014612
:100D20001046F0E72DE9F0410D46040003D094F899
:100D30003D0018B108E00120BDE8F081002084F8F2
:100D40003C00204600F040F8022084F83D00206876
:100D5000816844F2070291438160211D206800F000
:100D600099FC226890689169166A2B68AF69034301
:100D700040F20330814341EA0721A868EF69084344
:100D80004FF6FC418843E96840EA0720014328699F
:100D90002F6A000140EA0730084369686D6926F050
:100DA000220646EA0515294393602268906154F8AB
:100DB000460B0162012004F81F09E0752076E076F9
:100DC0002077A0750020B7E700B585B0002100911D
:100DD000019102910391026818491948B2F1804FBC
:100DE00019D0184B9A4214D1CA6942F00202CA6162
:100DF000CA6902F0020204928A6942F004028A611E
:100E0000896901F004010491C02100916946FFF74E
:100E100043FA05B000BDCA6942F00102CA61CA695D
:100E200002F0010204928A6942F004028A6189692F
:100E300001F0040104910321E7E7000000100240E3
:100E4000000801400004004070B590F83E60044680
:100E500090F83F5090F8423090F84320022021B1A2
:100E600004290ED0012E1BD114E0012E18D1012B24
:100E700016D184F83E0084F8420001220021206847
:100E800020E0012D0CD1012A0AD184F83F0084F81A
:100E9000430014E0012D03D1012B01D1012A01D01F
:100EA000012070BD84F83E0084F83F0084F84200C1
:100EB00084F8430001220021206800F021FC012277
:100EC0000421206800F01CFC2068016841F0010149
:100ED0000160002070BD704770B50446006801696C
:100EE0004FF00005C943890715D4C168C943890774
:100EF00011D4E91E016101202077206880698007F4
:100F0000204602D0FFF7E7FF04E000F0BFF82046DC
:100F100000F051F9257720680169C943490717D4C2
:100F2000C168C943490713D46FF00401016102206D
:100F300020772068806910F4407F204602D0FFF7B8
:100F4000CAFF04E000F0A2F8204600F034F925774B
:100F500020680169C943090716D4C168C943090754
:100F600012D46FF008010161042020772068C06965
:100F70008007204602D0FFF7AEFF04E000F086F8BD
:100F8000204600F018F9257720680169C943C90691
:100F900017D4C168C943C90613D46FF010010161A9
:100FA000082020772068C06910F4407F204602D0D6
:100FB000FFF791FF04E000F069F8204600F0FBF82D
:100FC000257720680169C943C90708D1C168C943A9
:100FD000C90704D1891E0161204600F03BF9206851
:100FE0000169C943090609D4C168C943090605D482
:100FF0006FF0800101612046FFF742FD2068016922
:10100000C943490609D4C168C943490605D46FF0EC
:1010100040010161204600F057F920680169C94389
:1010200089060BD4C168C943890607D46FF0200133
:1010300001612046BDE87040FFF723BD70BD000090
:1010400000B585B0002100910191029103910068E3
:101050000B49884212D10B48816941F0040181613A
:101060008069694600F0040004904FF440700090DD
:101070000220019003900448FFF70EF905B000BD6F
:10108000002C01400010024000080140704770B57C
:10109000044690F83C0000260D4601280FD00120A0
:1010A00084F83C006AB1042A1DD0082A2FD00C2AEB
:1010B0003FD00126002084F83C00304670BD02205D
:1010C00070BD206800F03CFB2068816941F0080198
:1010D00081612068816921F0040181612068816952
:1010E0002A69114311E0206800F052FB20688169F1
:1010F00041F4006181612068816921F4806181612E
:10110000206881692A6941EA02218161D2E7206869
:1011100000F06AFB2068C16941F00801C1612068E4
:10112000C16921F00401C1612068C1692A691143C4
:1011300011E0206800F084FB2068C16941F400617F
:10114000C1612068C16921F48061C1612068C16901
:101150002A6941EA0221C161ACE710B5040003D05D
:1011600094F83D0010B107E0012010BD002084F884
:101170003C00204600F01EF8022084F83D00211DAE
:10118000206800F087FA012084F8460084F83E00C9
:1011900084F83F0084F8400084F8410084F842005D
:1011A00084F8430084F8440084F8450084F83D0046
:1011B000002010BD7047704710B50446022249B1A7
:1011C00004290ED0082913D094F84100012816D024
:1011D000012010BD94F83E000128F9D184F83E208A
:1011E0000FE094F83F000128F2D184F83F2008E096
:1011F00094F840000128EBD184F8402001E084F805
:1012000041200122206800F07BFA0F4920688842C3
:1012100003D1426C42F4004242642068884208D004
:10122000B0F1804F05D00949884202D00849884270
:1012300004D1816801F00701062903D0016841F05B
:1012400001010160002010BD002C0140000400409D
:101250000008004030B404681648844202D130BC13
:1012600000F034BB14494FF0804542F21072886898
:10127000431C401EAC420AD16C6A944201D28B607E
:1012800003E06B6A934200D988600C480EE00C4D75
:10129000AC420DD10A4C24342568954201D28B60B2
:1012A00003E02368934200D98860064800684262E0
:1012B00030BC704700080040440100206C00002052
:1012C00000040040B40000207047FEE770B586B00F
:1012D000002418480094019402940394816941F019
:1012E00020018161816901F020010491816941F04F
:1012F00004018161816901F004010491816941F077
:101300000801816180690C4E00F008004FF470758F
:101310000490002229463046FFF7AEF801200095E0
:10132000CDE901040220039069463046FEF7B4FF80
:1013300006B070BD00100240000C014010B596B020
:1013400000240F9410941194129413941C21684655
:101350001494FEF739FF202107A8FEF735FF2D482A
:101360002B4901604721C0E9011440F2E731C0E98F
:10137000031444618461FFF7E3FB08B1FEF789FFC2
:101380004FF480500F900FA92248FFF75DFC08B181
:10139000FEF77FFF1F48FFF7E0FE08B1FEF779FF79
:1013A000139413A91B481494FFF796FB08B1FEF79A
:1013B00070FF602000904FF4FA70CDE901040394AF
:1013C000049405940022694612480694FFF75FFED4
:1013D00008B1FEF75EFF042269460E48FFF757FE8C
:1013E00008B1FEF756FF0794089409944FF4005093
:1013F0000A94CDE90B4007A906480E94FFF742FB7B
:1014000008B1FEF746FF0348FFF71AFE16B010BDFD
:10141000002C01402400002010B58CB02421684627
:10142000FEF7D2FE0024154809944FF080410A943B
:10143000C0E900144FF6FF71C0E902410461846104
:101440000120CDE90004CDE902040494CDE9054072
:101450000794694609480894FFF764FC08B1FEF751
:1014600018FF099409A905480A94FFF735FB0028DD
:1014700001D0FEF70EFF0CB010BD00006C00002084
:1014800010B58CB024216846FEF79EFE0024154856
:10149000099413490A94C0E900144FF6FF71C0E99A
:1014A0000241046184610120CDE90004CDE9020418
:1014B0000494CDE90540079469460A480894FFF76B
:1014C00031FC08B1FEF7E5FE099409A905480A9424
:1014D000FFF702FB002801D0FEF7DBFE0CB010BDC9
:1014E00000040040B400002010B586B00024174866
:1014F00000940194029403940494134905940160A8
:101500004721C0E9011442F20F71C0E9031484615C
:10151000FFF716FB08B1FEF7BCFE4FF480500090B9
:1015200069460A48FFF790FB08B1FEF7B2FE049443
:1015300004A906480594FFF7CFFA002801D0FEF76A
:10154000A8FE06B010BD000000080040FC0000200E
:10155000FEE7FEE710B500F10C0C029C017011686B
:1015600041605168816091688CE81A0000218163B4
:10157000416301630162C16281624162416401644D
:10158000C16310BD7047000038B51F4C002104F145
:101590000802606800901D482368FFF7DBFF606861
:1015A00000901A4804F10802002154302368FFF724
:1015B000D1FF1748FFF71CFB00211648FFF7FCFD81
:1015C00004211448FFF7F8FD3C211348FFF73CFCC9
:1015D0003C211248FFF738FC0F480168CA6842F006
:1015E0000102CA600D490A68D36843F00103D36061
:1015F000006842F2107242620868426203480021A9
:1016000028388160C16138BD100000206C010020C5
:10161000FC000020240000206C000020B40000200A
:101620007047FEF735BF30B58FB028216846FEF70A
:10163000CBFD14210AA8FEF7C7FD01210804CDE95E
:1016400000100024029402250491CDE907504FF4C4
:10165000E01009906846FFF76FF808B172B6FEE730
:101660000F20CDE90A054FF48060CDE90C4002213E
:101670000AA80E94FEF7A4FF002801D072B6FEE778
:101680000FB030BD704700000148FFF725BC0000D7
:10169000FC000020F0B50268164B174C174D4FF0B8
:1016A0008047984205D0B84203D0A04201D0A8425A
:1016B00003D122F070064A683243984205D0B842FE
:1016C00003D0A04201D0A84203D122F44074CA68DA
:1016D00022434C6922F08002224302608A68C2627F
:1016E0000A688262984201D109690163012141615E
:1016F000F0BD0000002C0140000400400008004044
:1017000010B501F01F030121046A99408C43046263
:10171000016A9A401143016210BD10B5846842EA23
:10172000032224F47F440A432243826010BD82686E
:1017300022F070020A4342F0070181607047000006
:1017400030B5036A026A22F00102026242688469CB
:1017500024F073050C682C4323F002058B682B439F
:101760000A4DA8420BD123F00805CB6822F4407241
:101770002B434D6923F0040315438A692A434260D1
:10178000846149684163036230BD0000002C014060
:1017900030B5026A036A23F0100303624368846968
:1017A0000D6824F4E64444EA05248D6822F0200202
:1017B00042EA05120B4DA8420ED1CD6822F08002FC
:1017C00042EA05124D6923F4406343EA85038D69BB
:1017D00022F0400243EA85034360846149688163E3
:1017E000026230BD002C014030B5036A026A22F467
:1017F000807202624268C46923F4007324F07305A6
:101800000C682C438D6843EA05230C4DA8420ED189
:10181000CD6823F4006343EA05234D6922F4405266
:1018200042EA05128D6923F4806342EA05124260A0
:10183000C4614968C163036230BD0000002C0140EF
:1018400030B5046A026A22F4805202624268C369B7
:101850000D6823F4E64343EA05238D6824F400541D
:1018600044EA0534064DA84204D14D6922F4804271
:1018700042EA85124260C36149680164046230BD76
:10188000002C014010B5036A046A24F001040462CC
:10189000846924F0F00444EA021423F00A020A43A3
:1018A0008461026210BD10B5036A046A24F010045A
:1018B0000462846923F0A00324F4704444EA0232F1
:1018C00043EA01118261016210BD00002DE9F04779
:1018D0004FF08040416AC26AA1EB5201194A09B235
:1018E0001268184F08373B68174CA2EB530216B228
:1018F000A268C06A424301EB520565602068281A5D
:1019000000F00CF9DFF84480414600F01FF9DFF8E1
:101910004090494600F040F82560E060E069396891
:10192000484306EB5005A5616069281A00F0F6F8F7
:10193000414600F00BF9494600F02EF8656120623F
:10194000BDE8F08724040040440100200080BB452E
:101950000000C344FEE70907090E002804DB00F17C
:10196000E02080F80014704700F00F0000F1E02044
:1019700080F8141D7047FEF793FDFFF754FEFFF744
:10198000A5FCFFF7DBFCFFF747FDFFF779FDFFF74D
:10199000ABFDFFF7F9FDFEE74FF47F0C1CEAD01218
:1019A0001EBF1CEAD11392EA0C0F93EA0C0F00F051
:1019B000858090EA010F48BF42F4807240F4000C29
:1019C00041F400002CF07F4120F07F4000B58142BF
:1019D000A2EB03020FF2081CACEB504EC0F100006A
:1019E0009EF800E04FEA4E0E00FB0EFC38BF4900A7
:1019F0004FEA2C1C02F5FA020CFB0EF34FEACE1E46
:101A00004FEA112C4FEAC1210EEB635E42EB2242FA
:101A10000EFB0CFC4FEA1C5300FB03114FEA112C88
:101A20004FEA01310EFB0CFC4FEADC4C00FB0C11C1
:101A3000C14228BF09184CEB03335DF804EB10EBEF
:101A4000410143EBC250B2F57C0F38BF704729D536
:101A500012F0F00F1CBF00F1C04000F000407047D2
:101A6000008182838485868788898B8C8D8E8F9177
:101A70009293959697999A9C9D9FA0A2A3A5A7A89B
:101A8000AAACAEB0B2B3B5B7B9BCBEC0C2C5C7C9C7
:101A9000CCCED1D4D7D9DCDFE2E6E9ECF0F3F7FA2B
:101AA000FE0000004FEA400C0CF1807CBCF17E4F40
:101AB00028BF7047B0F1C04000F00FB990EA010FA5
:101AC0000CEAD11348BF42F48072624538BF6345C7
:101AD00007D213F47F0F16D080EA010000F0004017
:101AE000704710B500F0B3F8097EFC3E00F005B871
:101AF00080EA010000F00040704780EA010000F039
:101B0000004000F0EAB812F47F0F04BF02487047AB
:101B100080EA010000F0E1B80000C07F10F0004151
:101B200048BF4042B0FA80F310FA03F2C3F19D03BC
:101B30000BD051EAC35101EB1220530638BF704756
:101B400000F1010008BF20F0010070474FF47F0C46
:101B50001CEAD0121EBF1CEAD11392EA0C0F93EAC2
:101B60000C0F00F0478090EA010F48BF42F48072EA
:101B70004FF0004C4CEA00204CEA012102EB03023A
:101B8000A0FB0113A2F50002002918BF43F00103D6
:101B90005B0028BF4FEA330342EB22425FEA132C7B
:101BA0004CEBC2502EBFBCEB436FB2F57C0F7047BD
:101BB0004FEA036CBCF1004F08BF20F00100B2F502
:101BC0007C0F38BF70470BD582F0FF0212F5803FC3
:101BD000C8BF704700F1C040D8BF00F00040704758
:101BE00000F5000C5FEA4C0C48BF7047B0F1C040F4
:101BF00000F073B890EA010F0CEAD11348BF42F429
:101C00008072624538BF634504D280EA010000F06B
:101C10000040704710B500F01AF800BF8900013E7F
:101C200000F007B800F009B85FEA410C5FEA1C6CED
:101C300008D080EA010000F050B85FEA400C5FEA8B
:101C40001C6CF6D14FF00040A0F5800070470EF1FB
:101C5000020E2EF0030E5EF8044B244204D44FEA29
:101C60004102B2F17F4F11D84FEA4003B3F17F4FE9
:101C70000CD80ED14FEAD07CB2F17F4F0CEB4C0C5C
:101C80000CF1020C08BF4CEBD17C04E04FF0080CC7
:101C900001E04FEAD17C0CEB4C0324FA03F404F08E
:101CA0000704B4F1040C06D20EEB840CBDE810401E
:101CB0004CF0010C6047DFE80CF0070802024FF01F
:101CC0000040A0F5800010BD0846420018BFD2F1C8
:101CD000807288BF00F0004010BDFF2141EAD05063
:101CE000C0057047010202030405060708090A0B34
:101CF0000C0D0E0F1010000000000000000001028B
:101D00000304060708090000281D00080000002041
:101D100024000000280100084C1D000824000020B9
:101D200054080000440100080100000010000000F9
:101D3000000000000024F40000401C4600401C4647
:0C1D400000002041000080BF0000404077
:04000005080000ED02
:00000001FF
