:020000040800F2
:10000000D005002005010008611B00083D1700080D
:100010008D1A0008D90300083521000800000000EF
:10002000000000000000000000000000791C000833
:10003000DB03000800000000751C00087B1C0008A2
:100040001F0100081F0100081F0100081F01000810
:100050001F010008771C00081F0100081F0100088D
:100060001F0100081F0100081F0100081F010008F0
:100070001F0100081F0100081F0100081F010008E0
:100080001F0100081F0100081F0100081F010008D0
:100090001F0100081F0100081F0100081F010008C0
:1000A000E11C0008051D0008F91C0008ED1C0008F3
:1000B000111D00081D1D0008291D00081F01000852
:1000C0001F0100081F0100081F0100081F01000890
:1000D0001F010008292100081F0100081F01000856
:1000E0001F0100081F0100081F010008DFF810D0E1
:1000F00000F060F90048004775210008AFF3008068
:10010000D00500200648804706480047FEE7FEE786
:10011000FEE7FEE7FEE7FEE7FEE7FEE7FEE7FEE7B7
:10012000DD1C0008ED000008D2B201E000F8012B50
:10013000491EFBD270470022F6E710B513460A4667
:1001400004461946FFF7F0FF204610BDF0B480EAE0
:100150000102D40F4200B2EB410F02D20246084620
:1001600011464A0042D0C30DDDB2C1F3C752AD1AE9
:10017000202D35DAC1F3160141F4000204B15242D8
:10018000C5F1200602FA06F12A411044B3EBD05F14
:1001900023D0C4B1012DA0EBC35009DCF0BC4FF05B
:1001A000004202EAC352DBB200F5000000F0D3B80F
:1001B000400000F1807000EBC350A0F1807040EA75
:1001C000D170490009E0490841EAC071A0EBC35071
:1001D00000F50000400800EBC350F0BC00F0B2B8DE
:1001E0006142012202EB4101001BF6E7F0BC7047BF
:1001F00081F00041AAE780F00040A7E780EA010211
:1002000010B502F00043400022D04A001FD0010E7A
:1002100001EB1261C0F35600C2F3560240F4000035
:1002200042F40002A0FB022000047F39140400D035
:10023000401C50EA124001D44000491EC2B20C06D4
:1002400004EBD010401C4008802A02D003E00020BC
:1002500010BD20F00100002900DA0020184310BD75
:1002600030B480EA010202F0004530F0004221F093
:10027000004013D090B1C30DD40DC2F31601C0F3EA
:100280001600E41A41F4000140F400027D3491426A
:1002900001D3641C00E04900002C02DA30BC0020CD
:1002A00070474FF400000023914201D3891A0343A1
:1002B00040084FEA4101F7D151B1914202D14FF0CC
:1002C000004105E002D24FF0010101E06FF00101B1
:1002D00003EBC450284430BC00F034B8420005D0D1
:1002E000C0F3C7525242914201DC0020704700EB3C
:1002F000C1507047C10F80EAE0700844CA079623D6
:10030000002100F028B820F00040C10DC0F3160015
:1003100040F400007F2901DA00207047962903DCB1
:10032000C1F19601C8407047963988407047000077
:10033000002801DBC0F10040002901DBC1F10041D0
:10034000884270470029A8BF7047401C490008BF79
:1003500020F00100704710B4B0FA80FC00FA0CF0F5
:1003600050EA010404BF10BC704749B1CCF120042D
:1003700021FA04F411FA0CF118BF012121430843BA
:10038000A3EB0C01CB1D4FEA00614FEA102042BFE6
:10039000002010BC704700EBC35010440029A4BFDC
:1003A00010BC7047401C490008BF20F0010010BC81
:1003B00070470000064C074D06E0E06840F001037E
:1003C00094E8070098471034AC42F6D3FFF792FE4A
:1003D000C0210008E0210008FEE7704772B6FEE782
:1003E00010B590F821100022022905D00421816364
:1003F00080F82020012010BD01680B6823F00E0357
:100400000B6001680B6823F001030B6090F840302B
:10041000C46B012101FA03F3636080F8211080F8B6
:100420002020104610BD000010B590F821100024C7
:10043000022903D00421816301243DE001680A6898
:1004400022F00E020A6001680A6822F001020A60C6
:100450001A4A0168914201D1012121E0174A143260
:10046000914201D110211BE0144A2832914201D15E
:10047000891515E0114A3C32914201D189140FE0EF
:100480000E4A5032914202D14FF4803108E00B4ABB
:100490006432914202D14FF4801101E04FF080713B
:1004A000064A083A5160012180F82110002180F8A5
:1004B0002010416B01B18847204610BD0800024062
:1004C0002DE9F84FDFF8B8910024A9F1040B234679
:1004D0000F2709F1040AABF1040EC9E00125A5407C
:1004E0002A40AA427DD1674ED1F804C0ACEB060881
:1004F000B44532D014DCBCF1030F3AD009DCBCF1B6
:10050000000F2AD0BCF1010F1CD0BCF1020F31D179
:100510001DE0BCF1110F17D0BCF1120F2AD119E068
:10052000B8F5881F19D006DCB8F5803F15D0B8F5AE
:10053000801F1FD111E0B8F5001F0ED0B8F5041FC1
:1005400018D10AE0CB6815E0CB681B1D12E0CB6820
:1005500008330FE0CB680C330CE08B682BB1012B18
:100560004FF0080303D0456104E0042302E0056175
:1005700000E00023FF2A01D8064601E000F104064E
:100580004FEA840501D9A5F12005D6F8008007FAC5
:1005900005FC28EA0C0803FA05F548EA0508C6F840
:1005A00000804D68ED0062D5374DAE6946F001061A
:1005B000AE61AD6924F0030605F001050095334DE9
:1005C00006EB050CDCF80850A607360F07FA06F80C
:1005D00025EA0805DFF8B880404503D14FF0000850
:1005E00017E044E0DFF8AC80404502D14FF001084D
:1005F0000FE0DFF8A480404502D14FF0020808E088
:10060000DFF89880404502D14FF0030801E04FF039
:10061000040808FA06F848EA0508CCF808804D688E
:10062000D9F80060ED024D4601D5164300E096432F
:100630002E604D68DAF80060AD02554601D51643CC
:1006400000E096432E604D68DBF80060AD035D4628
:1006500001D5164300E096432E604D68DEF8006039
:10066000ED03754601D5164300E096432E60641CE9
:100670000D682A46E5407FF431AFBDE8F88F0000F1
:100680000804014000001110001002400000014069
:1006900000080140000C014000100140001401401E
:1006A0000AB1016170470904FBE700000148806856
:1006B0007047000000000020024881680278114461
:1006C0008160704700000020074810B5016841F0C4
:1006D00010010160032000F07DF80F2000F006F803
:1006E00000F024F8002010BD0020024070B50D4D30
:1006F00004464FF47A712878B1FBF0F00A49096892
:10070000B1FBF0F000F0E4FA48B9102C07D2002257
:100710002146501E00F03EF800206C6070BD0120A4
:1007200070BD00000000002058000020104808B5EF
:10073000816941F001018161816901F0010100914C
:10074000C16941F08051C161C069002200F0805050
:1007500000901146052000F01DF8052000F00CF86F
:100760000448416821F0E06141F00071416008BD3A
:100770000010024000000140002809DB00F01F02C9
:10078000012191404009800000F1E020C0F80011F3
:1007900070470000F0B40E4B1B680C46C3F30223F5
:1007A000C3F10705042D00D90425191D072901D21D
:1007B000002300E0DB1E012606FA05F1491E214058
:1007C00099409E40761E16403143F0BC01F0B3BC08
:1007D0000CED00E0064900F0070208684FF6FF0341
:1007E000184040EA0220034A1043086070470000A6
:1007F0000CED00E00000FA052DE9F0470F4605007A
:1008000061D0434E306800F00700B84209D230682A
:1008100020F0070038433060306800F00700B8422D
:1008200051D128683B4C810712D5400703D5606839
:1008300040F4E06060602878000703D5606840F409
:10084000605060606068A96820F0F0000843606054
:100850002878C00728D06868012810D021680228AD
:1008600010D0890700292EDA616821F003010143C5
:100870006160FFF71BFF804641F288390DE0216877
:100880008903EFE78901EDE7FFF710FFA0EB08010F
:10089000494502D90320BDE8F0876068696800F027
:1008A0000C00B0EB810FEFD1306800F00700B842C8
:1008B0000BD9306820F0070038433060306800F012
:1008C0000700B84201D00120E5E72878400705D5A8
:1008D0006068E96820F4E0600843606028780007F9
:1008E00006D56068296920F4605040EAC100606064
:1008F00000F038F86168084AC1F30311515CC84040
:100900000649086006480068FFF7F0FE0020C2E7CD
:100910000020024000100240A821000858000020DA
:10092000040000200448054900684968044AC1F3EE
:100930000221515CC840704758000020001002405E
:10094000B82100080448054900684968044AC1F311
:10095000C221515CC840704758000020001002407E
:10096000B82100080E4A51680E4801F00C03042B10
:1009700011D0082B0FD10C48C1F38343C903C05CCD
:100980000AD55168084AC1F34041921E515C054A9C
:100990005043B0FBF1F070470449484370470000F2
:1009A0000010024000127A009821000800093D0062
:1009B0002DE9F84F040070D02078C04DC00749D011
:1009C0006868C0F38100012807D06868C0F381001F
:1009D000022809D16868C00306D52868800339D584
:1009E00060680028E7D035E06068B0F5803F0BD044
:1009F00010B1B0F5A02F11D0286820F48030286005
:100A0000286820F4802002E0286840F480302860C4
:100A1000606890B1FFF74AFE06460AE0286840F495
:100A200080202860F0E700BFFFF740FE801B6428AD
:100A300073D828688003F7D50CE0FFF737FE064629
:100A400005E000BFFFF732FE801B6428F0D828685D
:100A50008003F7D420789A4E80074FF001094FF0B9
:100A6000000839D5686810F00C0F07D06868C0F32B
:100A70008100022809D16868C00306D4286880076D
:100A800014D52069012808D110E02069B0B1C6F85A
:100A90000090FFF70BFE074605E00AE1FFF706FEB0
:100AA000C01B0228C4D828688007F7D52868616968
:100AB00020F0F80040EAC10028600DE0C6F8008090
:100AC000FFF7F4FD074604E0FFF7F0FDC01B022826
:100AD00023D828688007F7D4207800072CD57948D8
:100AE000A169D9B1C0F80090FFF7E0FD074604E026
:100AF000FFF7DCFDC01B02280FD8686A8007F7D516
:100B000071484FF4FA510068B0FBF1F0009000BF5B
:100B10000098411E0091FAD20EE080E0C0F80080FB
:100B2000FFF7C4FD074604E0FFF7C0FDC01B022825
:100B300075D8686A8007F7D42078400760D5E869DF
:100B40000027C00008D4E86940F08050E861E869F7
:100B5000012700F0805000905C480168C90513D45B
:100B60000168834641F480710160FFF79FFD824672
:100B700006E000BFFFF79AFDA0EB0A0064284ED8FC
:100B8000DBF80000C005F5D5E06801280AD008B1FF
:100B9000052813D0286A20F001002862286A20F076
:100BA000040002E0286A40F001002862E06841F297
:100BB000883B98B1FFF77AFD82460BE0286A40F047
:100BC00004002862EEE700BFFFF770FDA0EB0A010A
:100BD00059455AD8286A8007F6D50CE0FFF766FD1C
:100BE000824605E0FFF762FDA0EB0A0159454CD8AB
:100BF000286A8007F6D41FB1E86920F08050E861C8
:100C0000E06988B36968C1F38101022944D00228F0
:100C1000C6F8608004D0FFF749FD044638E034E0B0
:100C2000FFF744FD074604E0FFF740FDC01B022824
:100C30002BD828688001F7D4206AB0F5803F05D111
:100C40006868A16820F4003008436860D4E90801AE
:100C50000843696821F4741108436860C6F860901D
:100C6000FFF724FD044606E025E000BFFFF71EFD68
:100C7000001B022809D828688001F7D51BE000BFB7
:100C8000FFF714FD001B022802D90320BDE8F88FEE
:100C900028688001F4D40EE00128F7D06868226A41
:100CA00000F48031914204D1616A00F470108842EE
:100CB00001D00120EAE70020E8E700000010024030
:100CC0000000424280044242580000200070004070
:100CD00010B5401EB0F1807F01D3012010BD4FF050
:100CE000E02460610F21601701F025FA0020A06167
:100CF00007202061002010BD7047704770B590F844
:100D00003C20012A26D0012480F83C40022280F8B1
:100D10003D2003685A689D6822F070060A683243D5
:100D20005A600D4B02689A4208D0B2F1804F05D04C
:100D30000A4B9A4202D00A4B9A4204D1496825F0E4
:100D400080031943916080F83D40002180F83C10F9
:100D5000084670BD022070BD002C01400004004018
:100D60000008004010B5040003D094F83D0010B115
:100D700007E0012010BD002084F83C00204600F070
:100D80001FF8022084F83D00211D206800F0D2FFEA
:100D9000012084F8460084F83E0084F83F0084F87F
:100DA000400084F8410084F8420084F8430084F84D
:100DB000440084F8450084F83D00002010BD000088
:100DC00008B501681448B1F1804F14D0134A91421C
:100DD00020D1C16941F00401C161C069002200F065
:100DE0000400009011461E20FFF7D4FC1E20BDE831
:100DF0000840FFF7C1BCC16941F00101C161C06990
:100E0000002200F00100009011461C20FFF7C2FCF8
:100E10001C20ECE708BD0000001002400008004064
:100E200070B5044690F83C000025012817D0012633
:100E300084F83C60022084F83D002068826822F03B
:100E4000770222F47F4282600868502838D00DDC97
:100E500020284FD005DC90B3102811D14AE00220A1
:100E600070BD302846D040280AD13BE060282FD002
:100E700070280DD0B0F5805F03D0B0F5005F12D0C0
:100E8000012584F83D60002084F83C00284670BDB0
:100E9000CB68D1E90121206800F082FF20688168D9
:100EA00041F0770109E0CB68D1E90121206800F029
:100EB00077FF2068816841F480418160E1E719E0B3
:100EC000CA684968206801F01FF85021206806E0D0
:100ED000CA684968206801F028F86021206800F09D
:100EE00069FFCEE7CA684968206801F00DF8402123
:100EF0002068F4E7226801461046F0E72DE9F0414A
:100F00000D46040003D094F83D0018B108E001201C
:100F1000BDE8F081002084F83C00204600F040F855
:100F2000022084F83D002068816844F20702914362
:100F30008160211D206800F0FDFE226890689169A3
:100F4000166A2B68AF69034340F20330814341EADC
:100F50000721A868EF6908434FF6FC418843E96818
:100F600040EA0720014328692F6A000140EA073060
:100F7000084369686D6926F0220646EA051529438B
:100F800093602268906154F8460B0162012004F8D6
:100F90001F09E0752076E0762077A0750020B7E77E
:100FA00000B585B0002100910191029103912E4B73
:100FB00002682E492E489A4234D18A6942F400626E
:100FC0008A618A6902F4006204928A6942F004022A
:100FD0008A61896901F0040104914FF44071009124
:100FE0006946FFF76DFA002211461820FFF7D2FB81
:100FF0001820FFF7C1FB002211461920FFF7CAFB9A
:101000001920FFF7B9FB002211461A20FFF7C2FB97
:101010001A20FFF7B1FB002211461B20FFF7BAFB95
:101020001B201DE0134B9A421CD1CA6942F00202F8
:10103000CA61CA6902F0020204928A6942F004029B
:101040008A61896901F004010491C0210091694617
:10105000FFF736FA002211461D20FFF79BFB1D20EB
:10106000FFF78AFB05B000BD002C014000100240D4
:101070000008014000040040704770B50446006855
:1010800001694FF00005C943890715D4C168C943F8
:10109000890711D4E91E0161012020772068806949
:1010A0008007204602D0FFF7E7FF04E000F0BCF81D
:1010B000204600F04EF9257720680169C9434907A9
:1010C00017D4C168C943490713D46FF00401016103
:1010D000022020772068806910F4407F204602D0EB
:1010E000FFF7CAFF04E000F09FF8204600F031F956
:1010F000257720680169C943090716D4C168C94327
:10110000090712D46FF008010161042020772068DC
:10111000C0698007204602D0FFF7AEFF04E000F070
:1011200083F8204600F015F9257720680169C94346
:10113000C90617D4C168C943C90613D46FF010019A
:101140000161082020772068C06910F4407F2046A4
:1011500002D0FFF791FF04E000F066F8204600F0AF
:10116000F8F8257720680169C943C90708D1C16823
:10117000C943C90704D1891E0161204600F0EAF87D
:1011800020680169C943090609D4C168C943090631
:1011900005D46FF0800101612046FFF7ADFD2068A6
:1011A0000169C943490609D4C168C943490605D440
:1011B0006FF040010161204600F00AF920680169E2
:1011C000C94389060BD4C168C943890607D46FF0A7
:1011D000200101612046BDE87040FFF78EBD70BD63
:1011E00000B585B000210091019102910391006842
:1011F000B0F1804F11D10A48816941F00401816149
:101200008069694600F004000490032000900220E9
:10121000019003900348FFF753F905B000BD0000AB
:101220000010024000080140704770B5044690F875
:101230003C0000260D4601280FD0012084F83C0018
:101240006AB1042A1DD0082A2FD00C2A3FD00126CB
:10125000002084F83C00304670BD022070BD20683C
:1012600000F0B0FD2068816941F0080181612068CB
:10127000816921F004018161206881692A69114333
:1012800011E0206800F0C6FD2068816941F400612A
:1012900081612068816921F48061816120688169B0
:1012A0002A6941EA02218161D2E7206800F0DEFD6F
:1012B0002068C16941F00801C1612068C16921F05D
:1012C0000401C1612068C1692A69114311E02068E5
:1012D00000F0F8FD2068C16941F40061C161206837
:1012E000C16921F48061C1612068C1692A6941EA4C
:1012F0000221C161ACE710B5040003D094F83D00B1
:1013000010B107E0012010BD002084F83C00204609
:1013100000F01EF8022084F83D00211D206800F036
:1013200009FD012084F8460084F83E0084F83F005F
:1013300084F8400084F8410084F8420084F84300B7
:1013400084F8440084F8450084F83D00002010BD76
:101350007047704710B5044600681749884201D1AC
:1013600000F0EEF9154B2068154942F210729842D0
:101370000ED114480068436A934202D28B685B1C0A
:1013800004E0436A934202D98B685B1E8B60426221
:101390000D4B206898420ED10C480068436A934276
:1013A00002D20B6A5B1C04E0436A934202D90B6AC7
:1013B0005B1E0B62426210BD00080040002C014021
:1013C000280000206400002000040040F4000020F9
:1013D0007047704770470000F8B501680446086818
:1013E000CA684B6910F00F0F4FF0000559D003F099
:1013F000010602F49077374365D0C10705D0D105C7
:1014000003D5616C41F001016164410705D5D9073D
:1014100003D0616C41F002016164810705D5D907F1
:1014200003D0616C41F004016164010707D502F04B
:101430002001314303D0616C41F008016164616CAB
:1014400000293AD0800604D5900602D5204600F047
:10145000ADFD20684069616CC0F38010090700D4BD
:1014600060B3204600F07BFD20684069400621D52E
:101470002068143050E8001F21F0400140E80012BD
:10148000002AF5D1E06BA8B16D494163E06BFEF72E
:10149000CBFF002811D0E06B416B01B0BDE8F040FC
:1014A000084783060FD593060DD52046BDE8F840C2
:1014B00000F07CBD2046FFF78DFFF8BD2046FFF70A
:1014C00089FF6564F8BD266B2023012E7CD1C606FA
:1014D0007AD5D60678D508684868009048694FF0F4
:1014E0000206400640D5E16B086840680004000C25
:1014F000E8D0A28D8242E5D9E085886920282DD0E8
:1015000020680C3050E8001F21F4807140E8001280
:10151000002AF5D12068143050E8001F21F00101A5
:1015200040E80012002AF5D12068143050E8001F6E
:1015300021F0400140E80012002AF5D184F8423041
:10154000256320680C3050E8001F21F0100140E8AE
:101550000012002AF5D1E06BFEF742FF6663A08D12
:10156000E18D401A81B22AE0A08DE18D401A81B24E
:10157000E08D0028A6D00029A4D022680C3252E8C1
:10158000000F20F4907042E80007002FF5D120688A
:10159000143050E8002F22F0010240E80027002F0D
:1015A000F5D184F84230256320680C3050E8002FD4
:1015B00022F0100240E80023002BF5D1666320469C
:1015C000FFF707FFF8BDFFE705062BD5150629D560
:1015D00094F841002128F5D1A068B0F5805F01D1D1
:1015E0002069B0B1206A411C2162216800784860FE
:1015F000E08C401E0004000CE084E3D12068C16848
:1016000021F08001C1602068C16841F04001C160E3
:10161000D8E7206A0088C0F308004860206A801C70
:101620002062E5E74006CDD55006CBD5CA682046F6
:1016300022F04002CA6084F8413000F07EF8C1E731
:101640004F1F000870B5040004D094F84100002535
:1016500010B106E0012070BD84F84050204600F033
:1016600023F8242084F841002068C16821F4005147
:10167000C160204600F0FCFC2068016921F4904123
:1016800001612068416921F02A0141612068C16837
:1016900041F40051C1606564202084F8410084F861
:1016A00042006563002070BD30B585B00024009411
:1016B00001940294039400681B49884232D11B486C
:1016C000816941F480418161816901F48041049123
:1016D000816941F0080181618069154D00F00800C1
:1016E000049040200090022001900320039069465E
:1016F0002846FEF7E5FE8020CDE90004694628462D
:101700000294FEF7DDFE0B48416841F0E06141F0D4
:1017100004014160002211462520FFF73BF82520F7
:10172000FFF72AF805B030BD003801400010024034
:10173000000C01400000014070477047FEE70000C8
:101740002DE9F0411C480168486ACA6AA0EB5200C2
:1017500003B21A480068426AC46AC96AA2EB54021A
:10176000174C12B2A5684D4303EB55056560216A1D
:10177000C06A414302EB5106E6612068281AFEF771
:10178000B9FD104F3946FEF739FDDFF83C80414680
:10179000FEF766FDE060A069301AFEF7ABFD394642
:1017A000FEF72CFD4146FEF75BFDA66125606062F9
:1017B000BDE8F04100F06CB964000020F4000020A6
:1017C000280000200080BB450000C3442DE9F04301
:1017D00085B0002421480094019402940394816907
:1017E00041F020018161816901F02001049181694A
:1017F00041F004018161816901F004010491816972
:1018000041F0080181618069DFF8548000F0080030
:101810004FF4C0450490002229464046FEF740FFA1
:10182000DFF84090AF10002239464846FEF738FFF7
:101830000095022601250396CDE9015469464046EC
:10184000FEF73EFE00970396CDE9015469464846EF
:10185000FEF736FE05B0BDE8F08300000010024040
:10186000000C01400008014010B58CB024216846EE
:10187000FEF761FC00241648099414490A94C0E953
:10188000001444F62061C0E90241046144618461AE
:101890000320CDE900040120CDE902040494CDE940
:1018A0000540079469460A480894FFF727FB08B1EA
:1018B000FEF794FD099409A905480A94FFF71EFA5A
:1018C000002801D0FEF78AFD0CB010BD002C0140AD
:1018D0006400002010B58EB0002407940894099489
:1018E0000A940B941C2168460C94FEF724FC2348B0
:1018F0004FF0804101604721C0E9011442F20F71AD
:10190000C0E903148461FFF72DFA08B1FEF766FD04
:101910004FF48050079007A91848FFF781FA08B1E3
:10192000FEF75CFD1548FFF7E6FC08B1FEF756FD33
:101930000B940BA911480C94FFF7E0F908B1FEF7DE
:101940004DFD6020009041F28830CDE90104002275
:1019500069460A480494FFF768FC08B1FEF73EFDAB
:10196000042269460548FFF760FC08B1FEF736FD22
:101970000248FFF735FC0EB010BD0000AC0000209F
:1019800010B58CB024216846FEF7D5FB002416481C
:10199000099414490A94C0E9001444F62061C0E98E
:1019A0000241046184610320CDE900040120CDE9F6
:1019B00002040494CDE90540079469460A48089456
:1019C000FFF79CFA08B1FEF709FD099409A906483A
:1019D0000A94FFF793F9002801D0FEF7FFFC0CB042
:1019E00010BD000000040040F400002010B586B0D7
:1019F000002417480094019402940394049413491A
:101A0000059401604721C0E9011442F20F71C0E959
:101A100003148461FFF7A6F908B1FEF7DFFC4FF469
:101A20008050009069460A48FFF7FAF908B1FEF7BE
:101A3000D5FC049404A906480594FFF75FF9002833
:101A400001D0FEF7CBFC06B010BD0000000800403E
:101A50003C0100200C4810B50A4901604FF41651B2
:101A60004160002181600C22C160C0E904128161E3
:101A7000C161FFF7E7FD002803D0BDE81040FEF785
:101A8000ADBC10BD0038014084010020FEE700001D
:101A90002DE9F0472C4C2D4EE2686169306800F06A
:101AA00060F8A4F114052860626AE16A706800F0C9
:101AB00058F86860264F2868264E274C4FF4006877
:101AC0004FF48059B8420CD380F00040FEF71BFC65
:101AD00021684863012241463046FEF7E1FD0022BD
:101AE00009E0FEF710FC21684863002241463046B9
:101AF000FEF7D6FD012249463046FEF7D1FD686863
:101B0000164D4FF400564FF48048B8420CD380F085
:101B10000040FEF7F8FB2168886300223146284622
:101B2000FEF7BEFD012209E0FEF7EDFB21688863A8
:101B3000012231462846FEF7B3FD002241462846E1
:101B4000BDE8F047FEF7ACBD280000205C00002097
:101B50000000808000080140AC000020000C014023
:101B6000FEE72DE9F0470446006C60648146E06BB7
:101B70002064C4E9062180461046FEF739FB05467D
:101B8000E063207810B1012839D035E0294660683B
:101B9000FEF734FB60622946A068FEF72FFBA16ABE
:101BA000FEF7D4FA0646A062606BA063206B606308
:101BB00041462846FEF71CFB01462063E068FEF71D
:101BC0001DFBE06230466169FEF7B2FB606908D335
:101BD00080F00040A16AFEF7ABFB03D2606980F0A1
:101BE0000040A062D4E90901FEF7B0FAE16A32E0F0
:101BF000206980F000402062206ABDE8F0874146FD
:101C00002846FEF7F5FA6168FEF7F8FA07466062C3
:101C10002946A068FEF7F2FA0646A062606BA06350
:101C2000206B606301214046FEF758FB2946FEF712
:101C3000E2FA4946FEF78AFA01462063E068FEF7B9
:101C4000DDFA0546E06231463846FEF77FFA29465E
:101C5000FEF77CFA216AFEF779FA20622169FEF725
:101C600067FB2069C7D380F00040216AFEF760FB64
:101C7000C2D2BDE7704770477047FEF71DBD30B553
:101C80008FB028216846FEF756FA14210AA8FEF7FD
:101C900052FA01210804CDE9001000240294022523
:101CA0000491CDE907504FF4E01009906846FEF723
:101CB0007FFE08B172B6FEE70F20CDE90A054FF4AA
:101CC0008060CDE90C4002210AA80E94FEF794FD35
:101CD000002801D072B6FEE70FB030BD704700009B
:101CE0000148FFF7CAB90000640000200148FFF76F
:101CF000C4B90000640000200148FFF7BEB900002D
:101D0000640000200148FFF7B8B90000640000201B
:101D10000148FFF7B2B90000AC0000200148FFF70E
:101D2000ACB90000F40000200148FFF7A6B900009C
:101D30003C010020F0B50268164B174C174D4FF0D0
:101D40008047984205D0B84203D0A04201D0A842B3
:101D500003D122F070064A683243984205D0B84257
:101D600003D0A04201D0A84203D122F44074CA6833
:101D700022434C6922F08002224302608A68C262D8
:101D80000A688262984201D10969016301214161B7
:101D9000F0BD0000002C014000040040000800409D
:101DA00010B5846842EA032224F47F440A432243A4
:101DB000826010BD826822F070020A4342F007017F
:101DC0008160704730B5036A026A22F00102026244
:101DD0004268846924F073050C682C4323F00205E3
:101DE0008B682B430A4DA8420BD123F00805CB6822
:101DF00022F440722B434D6923F0040315438A6992
:101E00002A434260846149684163036230BD000037
:101E1000002C014030B5026A036A23F0100303620C
:101E2000436884690D6824F4E64444EA05248D6817
:101E300022F0200242EA05120B4DA8420ED1CD68D5
:101E400022F0800242EA05124D6923F4406343EA1E
:101E500085038D6922F0400243EA85034360846173
:101E600049688163026230BD002C014030B5036ACD
:101E7000026A22F4807202624268C46923F4007329
:101E800024F073050C682C438D6843EA05230C4D40
:101E9000A8420ED1CD6823F4006343EA05234D69BF
:101EA00022F4405242EA05128D6923F4806342EA2B
:101EB00005124260C4614968C163036230BD00001D
:101EC000002C014030B5046A026A22F4805202629A
:101ED0004268C3690D6823F4E64343EA05238D682D
:101EE00024F4005444EA0534064DA84204D14D6957
:101EF00022F4804242EA85124260C361496801646B
:101F0000046230BD002C014010B5036A046A24F05D
:101F100001040462846924F0F00444EA021423F00A
:101F20000A020A438461026210BD10B5036A046AA2
:101F300024F010040462846923F0A00324F47044A4
:101F400044EA023243EA01118261016210BD10B518
:101F5000406A0021C185C184FFF73CFA10BD0168C9
:101F60000C3151E8002F22F4907241E80023002B3D
:101F7000F5D10168143151E8002F22F0010241E847
:101F80000023002BF5D1016B012909D101680C3127
:101F900051E8002F22F0100241E80023002BF5D178
:101FA000202180F8421000210163704708B590F8A5
:101FB0004210222901D0022008BD82684FF48053CC
:101FC0009A4201D1016921B1816A9A421BD04AB17A
:101FD0000AE00268816A5268C2F308020A80816AD4
:101FE000891C08E0026972B10268526802F07F023F
:101FF0000A70816A491C8162C18D491E0904090C5D
:10200000C18503D01BE002685268F1E70168CA6825
:1020100022F02002CA600168CA6822F48072CA6095
:1020200001684A6922F001024A61202180F84210C9
:1020300000214163026B012A03D0FFF77DFB0020E2
:1020400008BD016301680C3151E8002F22F0100235
:1020500041E80023002BF5D101680A68D20602D5B9
:102060000A6849680091818DFFF7B3F9E7E700003E
:1020700070B5044600680169E26821F440511143DB
:1020800001612169A0680843616908432168CA6841
:1020900041F20C639A430243CA6020684169A26915
:1020A00021F44071114341611E492068884202D1E8
:1020B000FEF748FC01E0FEF735FC00EBC00101EB48
:1020C0000012606864218000B2FBF0F3B3FBF1F30F
:1020D0006FF018067343B2FBF0F5B2FBF0F605EBB8
:1020E0008305322303EB0515B5FBF1F5B6FBF1F6DD
:1020F00005F0F00505EB0615B2FBF0F6B2FBF0F0CB
:10210000B0FBF1F06FF01802504306EB800003EBD8
:102110000010B0FBF1F0216800F00F002844886047
:1021200070BD0000003801400148FFF755B90000BC
:1021300084010020FEE70907090E002804DB00F1F6
:10214000E02080F80014704700F00F0000F1E0205C
:1021500080F8141D704702E008C8121F08C1002A49
:10216000FAD170477047002001E001C1121F002A18
:10217000FBD17047FEF7A8FAFFF781FDFFF726FBBA
:10218000FFF772FBFFF7A6FBFFF764FCFFF7F8FB16
:10219000FFF72CFCFEE7010202030405060708090D
:1021A0000A0B0C0D0E0F10100000000000000000C4
:1021B00001020304060708090000000001020304ED
:1021C000E021000800000020640000005621000803
:1021D00044220008640000206C050000662100080D
:1021E00001000000100000000000000000401C463C
:1021F00000401C46000000000000000000002041DC
:10220000000080BF0000404000000000000000000F
:102210000000000000000000000000000000484333
:1022200000000000000000000000000000000000AE
:1022300000000000000000000024F4000000000086
:04224000000000009A
:04000005080000ED02
:00000001FF
